:100000000C94BF020C9406030C9406030C94060394
:100010000C9406030C9406030C9406030C9406033C
:100020000C9406030C9406030C94E02E0C94B22F4F
:100030000C9414210C9406030C9406030C940603F0
:100040000C9406030C9406030C9406030C9406030C
:100050000C9406030C9461210C9406030C94060383
:100060000C9406030C9406030C9406030C940603EC
:100070000C9406030C9406030C9406030C940603DC
:100080000C9406030C9406030C9406030C940603CC
:100090000C9406030C9406030C9406030C940603BC
:1000A0000C9406030C9406030C9406039D08AF08F9
:1000B000BB08E908D508DB080509A308CF0805092E
:1000C00005090509F308601063106B1070107510B6
:1000D0007A107F10841089108E10931098109A1047
:1000E0009D10A010A310A610A910AB10B0106E1692
:1000F0006E16A016A016ED160B172C182C18161736
:10010000AB17BC17BC171C182C182C182518DA189C
:10011000DA18EC18EC18E318EC18EC18EC18DA18EC
:10012000DA18E818EC18EC18E8181F3046303E31A1
:1001300046303E319230B5303E310C311B31AC008F
:10014000AE41AB00350052003B42500051004F0021
:10015000C45C0100C55CCC5CCD5CC35CC85CC95CA4
:10016000CA5CAC00A800AB00AD00AE000100B2005C
:10017000B100B30032190A00047F3F1F64321464D7
:100180003214783C1E1E140A052223252628292A0B
:100190002C2D2F3032333536383A3B3D3E404243EA
:1001A0004547494A4C4E5051535557595A5C5E6029
:1001B00062646668696B6D6F71737577797B7D7F3B
:1001C00081838587898A8C8E90929496989A9C9E3A
:1001D0009FA1A3A5A7A8AAACAEAFB1B3B4B6B8B956
:1001E000BBBCBEBFC1C2C3C5C6C7C9CACBCCCDCEBE
:1001F000D0D1D2D2D3D4D5D6D7D7D8D9D9DADADBA1
:10020000DBDBDCDCDCDCDCDDDDDDDDDCDCDCDCDC2C
:10021000DBDBDBDADAD9D9D8D7D7D6D5D4D3D2D26B
:10022000D1D0CECDCCCBCAC9C7C6C5C3C2C1BFBE53
:10023000BCBBB9B8B6B4B3B1AFAEACAAA8A7A5A3BE
:10024000A19F9E9C9A98969492908E8C8A8987857D
:1002500083817F7D7B79777573716F6D6B6968665C
:100260006462605E5C5A5957555351504E4C4A492E
:1002700047454342403E3D3B3A3836353332302FD6
:100280002D2C2A292826252322FFAA7F554000014C
:100290000101010101010101020202020202020246
:1002A0000203030303030303030404040404040418
:1002B00005050505050606060606070707070708DC
:1002C000080808090909090A0A0A0B0B0B0C0C0C8F
:1002D0000D0D0D0E0E0E0F0F0F1010111111121229
:1002E00013131414151516161717181819191A1AA6
:1002F0001B1B1C1D1D1E1E1F202021222223242407
:10030000252626272829292A2B2C2D2D2E2F303142
:100310003232333435363738393A3B3C3D3E3F4054
:100320004142434445464748494A4C4D4E4F50513F
:100330005354555658595A5B5D5E5F6162646566F9
:1003400068696B6C6D6F7072737577787A7B7D7E80
:100350008082838587888A8C8E8F91939596989AD0
:100360009C9EA0A2A3A5A7A9ABADAFB1B3B5B7BAE8
:10037000BCBEC0C2C4C6C9CBCDCFD1D4D6D8DBDDBC
:10038000DFE2E4E7E9EBEEF0F3F5F8FAFDFF1C033A
:100390004E006F006F0064006C006500200050008C
:1003A0006100640020007600310000001E0354004C
:1003B0006800650020004D006100640020004E00D0
:1003C0006F006F0064006C00650000000403090406
:1003D00009029F00040100A0FA09040000010301C2
:1003E00001000921110100012240000705810308D5
:1003F000000A0904010001030000000921110100A5
:100400000122BC000705820320000A080B0202013A
:10041000010000090402000001010000092401009C
:10042000010900010309040300020103000007247D
:10043000010001410006240201010006240202021B
:10044000000924030103010201000924030204013D
:100450000101000905040240000500000525010115
:100460000109058302400005000005250101031272
:1004700001100100000008EDFE011701000102005B
:100480000105010902A10185020901A1000509195F
:100490000129051500250195057501810295017554
:1004A0000381010501093009311581257F95027508
:1004B00008810609381581257F9501750881060593
:1004C0000C0A38021581257F950175088106C0C088
:1004D00005010980A101850319012AB7001501262C
:1004E000B700950175108100C0050C0901A10185B7
:1004F0000419012AA002150126A002950175108198
:1005000000C005010906A1018505050719E029E7D5
:10051000150025019508750181020507190029EFCD
:100520001500250195F075018102050819012905BD
:10053000950575019102950175039101C0050109A9
:1005400006A101050719E029E715002501950875A1
:100550000181029501750881010507190029FF1520
:100560000026FF0095067508810005081901290578
:10057000950575019102950175039101C000112443
:100580001FBECFEFDAE0DEBFCDBF04B603FE27C04B
:100590008091030490910404A0910504B091060495
:1005A0008730904BA740B04BD1F4109203041092C7
:1005B0000404109205041092060414BE84B7877FC9
:1005C00084BF0FB6F894A8958091600088618093ED
:1005D0006000109260000FBEE0E0F8E3099511E0C2
:1005E000A0E0B1E0E4EBF5E602C005900D92AA3E72
:1005F000B107D9F724E0AAEEB1E001C01D92A33003
:10060000B207E1F70E94CF2B0C94D8320C94000073
:10061000CF93C62F6091630270916402809165024E
:10062000909166020E944C04813041F4CC2319F071
:10063000CF910C94830BCF910C94900BCC2311F0A1
:1006400089EA01C08AEACF910C9417169C013A9569
:1006500021153F4138F5DC01AA27B270AC014427CF
:1006600054709C012227387094FF0FC090FF02C085
:1006700080E101C080E0AB2B09F08062452B09F0DE
:100680008064232B69F080680BC0892F8170AB2BAD
:1006900009F08260452B09F08460232B09F0886003
:1006A000FB0109940895CF93DF93EC01805E9109DB
:1006B000089710F0209719F46AE276E102C060EA28
:1006C00078E1CE010E9426038C2FDF91CF910C940C
:1006D0008D15CF93DF93EC010E94E315CE01805E70
:1006E0009109089710F0209719F461E376E102C0B0
:1006F00067EA78E1CE01DF91CF910C942603CF9386
:10070000DF93EC010E945303CE01DF91CF910C9453
:10071000690381E0089581E008950C948B030895A6
:100720000C948F031F93CF93DF9300D000D01F92C0
:10073000CDB7DEB749835A836B833091200289811C
:100740009A81311114C0662359F0222349F00E9486
:10075000131E182F682F89819A810E94BC1D03C027
:100760000E94E71D182F69817A81812F04C00E94A1
:10077000131E69817A810F900F900F900F900F9048
:10078000DF91CF911F910C94B004FC01262F408182
:1007900051816281738184810C949203CF93DF93A2
:1007A000EC0160E00E94C503BE01DF91CF910C9483
:1007B00090030E94481F811102C00E94F41F0E94F2
:1007C00052110C94CF060C94CB06282F2F7041F0B9
:1007D000822F90E02A3010F44D96089506970895E0
:1007E00087E290E0089508950E94C8180E94F303DC
:1007F0002FEF84E39CE0215080409040E1F700C05F
:1008000000000C9487210F931F93CF93DF93EC018B
:1008100061E00E94C5038C01BE010E948D03882304
:10082000A9F1BE01C8010E94DC11882379F1BE0143
:10083000C8010E946D12882349F1BE01C8010E94BF
:10084000BF12882319F1BE01C8010E94EA13882350
:10085000E9F0BE01C8010E9449108823B9F08A81DD
:10086000882369F001158CE5180731F00F3D1C4510
:1008700031F40E94F41F0AC00E94F40307C0CE01A5
:10088000DF91CF911F910F910C94890380E0DF914C
:10089000CF911F910F910895CF92DF92EF92FF9227
:1008A0006C01EE24FF24C114D104E104F10421F011
:1008B000C701B60120E101C020E0C72ED82EE92EE5
:1008C000FF24C114D104E104F10419F0285FC70129
:1008D000B6016B017C0154E0F694E794D794C79479
:1008E0005A95D1F7C114D104E104F10419F02C5F39
:1008F000C701B6016B017C0142E0F694E794D794FE
:10090000C7944A95D1F7C114D104E104F10419F058
:100910002E5FC701B601DC01CB01B695A79597956F
:100920008795892B8A2B8B2B09F02F5F822FFF90C5
:10093000EF90DF90CF90089508950C949C0481E08F
:1009400008950C949F04CF93C82F0E949D048C2F70
:100950000E94A104CF91089580E090E00895089549
:10096000272F30E0F901EE0FFF1F2E0F3F1FF90177
:1009700099E0899FE00DF11D1124E60FF11DEE0FA6
:10098000FF1FE25CFE4F859194910895880F991F97
:10099000FC01EC58FE4F859194910895CF93DF931D
:1009A0000E94B0040E94E605EC018115904508F014
:1009B00041C0C11580E4D80708F0D1C0C83ED105B8
:1009C00010F5C03ED10508F0FDC0C83AD10578F455
:1009D000C53AD10508F0A2C0C130D10509F4F2C072
:1009E00008F4EEC0C430D10508F0ECC0E9C0CF3B3C
:1009F000D10508F49BC0C03CD10508F4E1C0CE018C
:100A0000805C91099EC0C11590E2D90758F4C115C8
:100A100021E0D20708F0D6C0C03FD10508F4D0C00D
:100A2000D065D0C0C11580E3D80708F08EC0CE01D4
:100A30009F7087C0C11595E5D90708F043C0C1155F
:100A400024E5D20708F0A2C0C11582E5D80708F551
:100A5000C11591E5D90708F085C0CE0174E09695DF
:100A600087957A95E1F783709C2F937021E030E0B1
:100A700002C0220F331F9A95E2F73C68382BCF70E3
:100A8000C695C69580E2C89FE0011124C22BD32BE6
:100A900099C09E01237033278C2F86958695C115AA
:100AA000D34508F064C0C1E0D0E002C0CC0FDD1F28
:100AB0002A95E2F720E2829FC0011124C82BD92B8E
:100AC000DC6880C0C11529E5D207A0F4C11588E50E
:100AD000D80708F060C0C11596E5D90708F070C0C6
:100AE0008C2F0E947A068F71C82FD0E0DC2FCC2784
:100AF000D06268C0C1152AE5D20708F451C0CE0102
:100B000090568115904208F05BC08D2F8F710E9426
:100B10007A06DD27D0628F71D82B54C0C55AD0E039
:100B2000CA59DE4FC881D0E0D0644CC0C85AD0E06A
:100B3000CC0FDD1FC85CDE4F0990D881C02DD46476
:100B400041C00E94C604EC013DC0CE019927D3FFED
:100B500003C0EC01D86C36C0EC01D06C33C0DF7040
:100B6000D06A30C0DC2FCC27C16FD06A2BC0C1E067
:100B7000D0E002C0CC0FDD1F2A95E2F720E2829F71
:100B8000C0011124C82BD92BDA681CC0DC2FCC275C
:100B9000C46FD06A17C0DC2FCC27C06FD06A12C0D8
:100BA0008C2F8F700E947A0694E0D695C7959A95FF
:100BB000E1F7CF70D0E0DC2FCC27D069C82B02C082
:100BC000C0E0D0E0CE01DF91CF9108958238910549
:100BD00069F1B0F48133910509F46DC048F48932AC
:100BE000910509F463C08A32910509F469C008953A
:100BF0008533910509F455C089339105B9F00895FD
:100C0000833E910569F138F4803E9105B1F0823E52
:100C1000910509F10895863E9105A9F1873E910558
:100C2000B9F1843E910509F064C023C02091070307
:100C300020FD4FC021FD4DC008958091070380FD28
:100C400044C08091080380FF44C08091070384FD65
:100C500042C083EE4DC08091070382FF38C0F5CFBC
:100C60008091070382FD33C08091080380FD31C06D
:100C7000ECCF8091080381FF32C08091070384FD8F
:100C80002AC087EE35C08091070383FF26C0F5CFC9
:100C90008091070383FD21C08091080381FD1FC05F
:100CA000ECCF8091070385FD1CC01DC08091070318
:100CB00085FD19C016C08091070386FD16C017C0B8
:100CC0008091070386FD13C010C089E311C082EE36
:100CD0000FC080EE0DC080E00BC086EE09C084EE30
:100CE00007C089E205C085E303C08AE201C081E351
:100CF00090E008959091070392FF0DC0282F28716E
:100D0000283019F4877F846006C0282F247124308E
:100D100011F48B7F886093FF0DC0282F2871283134
:100D200019F4877E846106C0282F2471243111F4C0
:100D30008B7E88612091080320FF0DC0382F387109
:100D4000383019F4877F816006C0382F3171313017
:100D500011F48E7F886021FF0DC0282F2871283163
:100D600019F4877E816106C0282F2171213111F489
:100D70008E7E886194FD877E0895E82FF0E0E7512C
:100D8000FD4F80810895089580EA8A95F1F70895CE
:100D900008950C94C8060C94C9060C94C8060C94CB
:100DA000CD06F894E82FE295EF70F0E031A1282FFE
:100DB0002F7081E090E001C0880F2A95EAF7982F04
:100DC0009095932391A392A1892B82A3789408955F
:100DD00084E30E94D10685E30E94D10686E30E9447
:100DE000D10684E90E94D10686E90E94D10687E9EE
:100DF0000E94D106A6EEB2E01C92E9EEF2E010826B
:100E000011961C921197118212961C92128283E005
:100E10000E9493070C94D9038F929F92AF92BF9236
:100E2000CF92DF92EF92FF920F931F93CF93DF93B6
:100E300009E611E0C0E0D0E0912CEE24E394F12C1F
:100E400099EEA92E92E0B92E6801D8018C91F89400
:100E5000E82FE295EF70F0E021A18F70A70102C0AA
:100E6000440F551F8A95E2F7CA01922F982B91A340
:100E700092A18095892382A378940E94C406C70119
:100E80000C2E01C0880F0A94EAF7582F282F2095BE
:100E9000E6EEF2E06CE671E0812C4081DB013D91F1
:100EA000BD01832F82958F7090E0DC0190968C912C
:100EB00090E03F7002C0959587953A95E2F780FDE6
:100EC00003C0842F852B02C0842F8223481719F07A
:100ED0008083882483943196AE16BF06F1F60F5FA7
:100EE0001F4FF60180810E94D10698282196C330B9
:100EF000D10509F0A9CF292D43E069EE72E086EE15
:100F000092E00E9494070E94E303892DDF91CF9124
:100F10001F910F91FF90EF90DF90CF90BF90AF9017
:100F20009F908F9008950895FF920F931F93CF93F2
:100F3000DF938C01F62ED72FC42F222349F081E0B6
:100F40008093EC010E9446219093EB018093EA018B
:100F50008091EC018823C1F08091EA019091EB012E
:100F60000E945221069780F0EF2DFD2FD8014C2FC3
:100F700050E0CD01801B910B841795071CF48D91D7
:100F80008193F7CF1092EC01DF91CF911F910F91D8
:100F9000FF900895EF92FF920F931F93CF93DF93EB
:100FA000CDB7DEB7AC970FB6F894DEBF0FBECDBF9E
:100FB000962F21323105A0F5BA0140EF49831A82FC
:100FC0001B821C82790142E0E40EF11C0CE210E06D
:100FD0000E191F09E1E0F0E0EC0FFD1F0E0F1F1FBF
:100FE000F80180839183A901C80102960E946832AA
:100FF000A701B801CE0105960E94C127E5E0F0E007
:10100000EC0FFD1FE80FF91F27EF2083BC016B5F7A
:101010007F4FAE014F5F5F4F89E093E00E94B224A3
:10102000AC960FB6F894DEBF0FBECDBFDF91CF9167
:101030001F910F91FF90EF900895FA0190838183A3
:10104000728363830895FC01E60FF11D6081862F92
:1010500090E0A0E0B0E0B82FAA2799278827238145
:10106000822B2181A22B2281BC01CD01722B0895FC
:1010700081E008950C9438080C943A08EF92FF929E
:101080000F931F93CF93DF9300D000D0CDB7DEB77F
:10109000F82EE92E8B010E943C08882309F4B5C084
:1010A000D8018C91823380F4803308F0AEC0813156
:1010B00009F4ABC018F4803189F1A0C0803271F01E
:1010C000813209F09BC0A1C0803408F497C08234FB
:1010D00008F49BC0803809F091C097C0F801818165
:1010E000843081F08630A1F08230C1F482810E9488
:1010F0005B1FD80112966C9170E080E090E00E9436
:10110000BE1C0CC0F801828190E00E94711F06C0D5
:1011100062E0C8010E9423080E94D109D8011196FB
:10112000EC918E2F90E0FC013197ED30F10508F045
:101130006CC0EA5AFF4F0C94C83120E030E040E028
:1011400050E061E059C082E090E00E9471328983F2
:1011500021E030E0AE014F5F5F4F68E04DC083E0BB
:1011600090E00E947132898321E030E0AE014F5F50
:101170005F4F62E041C060916302709164028091B0
:10118000650290916602AE014F5F5F4F0E941D089D
:1011900024E030E0AE014F5F5F4F63E02DC020E000
:1011A00030E040E050E069E027C020E030E040E07F
:1011B00050E065E021C00E94CD09AE014F5F5F4F56
:1011C0000E941D0824E030E0AE014F5F5F4F66E0F3
:1011D00013C00E94601F898321E030E0AE014F5FA1
:1011E0005F4F64E009C083E089838A8322E030E0B6
:1011F000AE014F5F5F4F6DE081E105C02F2D3E2DA9
:10120000A80160E080E80E94CA070F900F900F903D
:101210000F90DF91CF911F910F91FF90EF90089564
:1012200089E093E00C94F626EF92FF920F931F93C0
:10123000CF93DF938B01682F11110AC0442329F04B
:10124000E82FF0E0E257FD4F6491762F862F75C0AE
:10125000212F30E0E82FF0E0442321F0E257FD4F4A
:10126000E491F0E046E0049FC0011124CFEFD0E00C
:10127000BE010E947E314BEA4603C001479F900D9C
:101280001124800F911D800F911D982F990F890FA8
:10129000AE01421B530B4E9FD0014F9FB00D5E9F7E
:1012A000B00D11249B2F189FA0011124452F552705
:1012B0008E01041B150B0E9FA0010F9F500D1E9F4A
:1012C000500D11247E01E81AF108E29E8001E39E90
:1012D000100DF29E100D1124212F3327C21BD30BAA
:1012E000CE9F9001CF9F300DDE9F300D11246230D4
:1012F0007105A9F048F46115710569F06130710557
:10130000C9F48B2F752F0DC06430710581F058F032
:101310006630710579F47E2F8B2F932F0DC0832FAC
:101320007B2F9E2F09C08E2F7B2F952F05C08E2FD0
:10133000732F02C07E2F852F692FDF91CF911F91D0
:101340000F91FF90EF90089541E00E9414090895D5
:1013500008950E94A4090895CF93DF93762FE901A1
:10136000682F842F0E94A909798368838A83DF917B
:10137000CF9108958091EC02282F269530E0211519
:10138000310519F48170826005C02B32310524F0DB
:10139000817084658093EC02089588E090E00C945D
:1013A0007932CF92DF92EF92FF926B017C010E9423
:1013B000BA09B701A60188E090E0FF90EF90DF90B6
:1013C000CF900C949732ECEEF2E083E080831182B0
:1013D0008FEF828383831482608171818281938104
:1013E0000C94D1098091EC0280FF02C0869508958B
:1013F00080E008959091F002933018F49F5F9093ED
:10140000F002882351F06091EC027091ED0280911E
:10141000EE029091EF020C94D109089581E00C94B2
:10142000FA099091F002992319F091509093F002EB
:10143000882351F06091EC027091ED028091EE02F0
:101440009091EF020C94D109089581E00C94110A57
:1014500070E00C94BA10609108018091EC0280FF5A
:101460000AC08091070123E0829FC00111248F50A0
:101470009D4F0C94280A8091090190910A018917C7
:1014800080F7E82FF0E09F01220F331FE20FF31FD8
:10149000EF50FD4F1182108212828F5FF0CF90913A
:1014A000EC0290FF16C09091090120910A01921759
:1014B00070F4E92FF0E0DF01AA0FBB1FEA0FFB1F5A
:1014C000EF50FD4F8183608342839F5FF0CF0C9488
:1014D0002B0A0895CF93DF9300D01F92CDB7DEB7CC
:1014E0009091EC0290FF0AC09E012F5F3F4F0E9437
:1014F000AC094B8169818A810E944F0A0F900F903D
:101500000F90DF91CF910895CF93DF93EC01EC81A1
:10151000F0E0E757FE4F4491ECEEF2E0628181810A
:101520000E946A0A8C818F5F8C83DF91CF9108952E
:10153000CF93DF93EC01ECEEF2E0438162818C818A
:101540000E946A0A8C818F5F8C83DF91CF9108950E
:101550000F931F93CF93DF9300D01F92CDB7DEB7C9
:101560008C018091ED0181110AC09E012F5F3F4FD8
:101570004FEF6FEF0E94AC098A818093ED01F80173
:101580008481813051F028F0823061F44091ED0186
:101590000AC08091ED0140E007C06091ED0140E09C
:1015A00080E003C040E080E060E00E944F0AF80164
:1015B000848190E0019663E070E00E949231848320
:1015C0000F900F900F90DF91CF911F910F91089581
:1015D000AF92BF92CF92DF92EF92FF920F931F9341
:1015E000CF93DF9300D01F92CDB7DEB7182FF62E22
:1015F000042FE22E9091EC0290FF6DC0E92FE6954A
:10160000AE2FB0E0A159BE4F8C9180930D029E7F0A
:10161000923061F49E012F5F3F4F812F0E94AC09F1
:101620004B8169818A810E944F0A43C0823019F43C
:101630000091EF023EC0863019F41091ED0239C0DE
:101640008930D9F38931A9F5E9518E2F8170D82ECF
:10165000E695F0E0E757FD4FA590B490C12CBB2470
:1016600060910B01C61618F52C2D30E0A29EC0012A
:10167000A39E900DB29E900D112470E00E947E31C9
:10168000812FD11002C0860F01C0861B90910901E5
:10169000290F311DA901440F551F240F351F2F504D
:1016A0003D4F402F6F2D0E94AC09C394D9CF0E94AB
:1016B0002B0A1093ED02F092EE020093EF02EE205F
:1016C00051F06091EC027091ED028091EE029091E8
:1016D000EF020E94D1090F900F900F90DF91CF91F0
:1016E0001F910F91FF90EF90DF90CF90BF90AF9040
:1016F0000895ECEEF2E09181282F4381628188E029
:10170000890F0C94E80A81E00C94790BECEEF2E07E
:101710009181282F4381628188EF890F0C94E80A18
:1017200081E00C94860BECEEF2E0628121E1620F25
:1017300008F46FEF282F438181810C94E80A81E03F
:101740000C94930BECEEF2E0628121E1621B08F451
:1017500060E0282F438181810C94E80A81E00C9499
:10176000A20BECEEF2E0438121E1420F08F44FEFCF
:10177000282F628181810C94E80A81E00C94B10BDE
:10178000ECEEF2E0438121E1421B08F440E0282F17
:10179000628181810C94E80A81E00C94C00B20E006
:1017A0000C94E80AFF920F931F93CF93DF93EC0101
:1017B000F12C0FEF10E060910B01F616F0F4809120
:1017C00009012F2D30E0280F311DC901880F991F05
:1017D000280F391F2F503D4F70E0C8010E949231F1
:1017E000962F8C814091EF026091EE02F99E800D60
:1017F00011240E94AC09F394DECF0E942B0A9A8137
:101800008C8190FF02C08F5F01C081508C83DF917B
:10181000CF911F910F91FF900895BF92CF92DF92C9
:10182000EF92FF920F931F93CF93DF93FC0182817E
:1018300080FF02C00FEF01C001E010E080910B01BA
:10184000181708F040C080910901C12ED12CE60183
:10185000C80FD11DCE01880F991FC80FD91FCF50B7
:10186000DD4F198218821A8234E0E32EF12CB12C5C
:101870008091EF018B0D853014F0837005C087FFD8
:1018800003C090910B01890F082E000C990BC8160C
:10189000D90691F48091EF028E9DA0018F9D500D8D
:1018A000112455954795559547959E016091EE02F7
:1018B0008091ED020E94AC09B00EF1E0EF1AF10840
:1018C000B9F61F5FBBCF0E942B0A8091EF01013058
:1018D00031F4811102C080910B01815007C090E06A
:1018E000019660910B0170E00E9492318093EF01AC
:1018F000DF91CF911F910F91FF90EF90DF90CF90EC
:10190000BF900895CF938091090190910A018917A2
:1019100070F4E82FF0E09F01220F331FE20FF31F56
:10192000EF50FD4F1182108212828F5FF0CFC0E026
:1019300060910B01C617C0F5EC2FF0E070E0CF010D
:101940000E94923120910901820F2091EE01022E16
:10195000000C330B90E0E217F307CCF02091060166
:10196000022E000C330B2E173F078CF09C01220F28
:10197000331F820F931F9C012F503D4F4091EF0268
:101980006091EE028091ED020E94AC090BC0FC0157
:10199000EE0FFF1F8E0F9F1FFC01EF50FD4F1182B6
:1019A00010821282CF5FC4CF0E942B0A20910501C2
:1019B0008091EE01820F8093EE0190910601920FCB
:1019C0009093060119165CF4082E000C990B4091B7
:1019D0000B0150E041505109841795071CF02195E7
:1019E00020930501CF9108958F929F92AF92BF925D
:1019F000CF92DF92EF92FF920F931F93CF93DF93DB
:101A00008C01FC014481C42FD0E09E01DE010E94C4
:101A1000D6319B01AC010E94EC316B017C01E0E20C
:101A2000F0E0EC1BFD0BA5E5B0E09B01AC010E94D2
:101A3000EC314B015C019F01DF010E94CE319B0123
:101A4000AC010E94F7319B01AC012C0D3D1D4E1DD8
:101A50005F1DC501B4010E94A631C22FD22F2A32C8
:101A600028F4F3E02F9F900111240DC025E530E00C
:101A70002C1B3109C901880F991F280F391F37FF07
:101A800002C02F5F3F4F35952795C22FC095F12C8F
:101A900085E5E82EED1A80910B01F816C8F4F1FCEB
:101AA00002C08E2D01C08D2F909109012F2D30E0A5
:101AB000290F311DA901440F551F240F351F2F5029
:101AC0003D4F4C2F6091EE020E94AC09F394E3CF9E
:101AD0000E942B0AF8018481811102C091E003C0A9
:101AE000803219F49FEF9093040190910401890FC3
:101AF000F8018483DF91CF911F910F91FF90EF90B8
:101B0000DF90CF90BF90AF909F908F9008950F93EC
:101B10001F93CF93DF93EC0100E010E080910B0165
:101B2000282F30E00217130724F59091090198013E
:101B3000290F311DA901440F551F240F351F2F50A8
:101B40003D4F869590E04C81081719071CF44423FB
:101B500031F002C0411103C04091EF0201C040E0EA
:101B60006091EE028091ED020E94AC090F5F1F4F61
:101B7000D5CF0E942B0A8C8190E001968170992725
:101B80008C83DF91CF911F910F9108958F929F9237
:101B9000AF92BF92CF92DF92EF92FF920F931F937B
:101BA000CF93DF93FC01B280948081E0848300E0D6
:101BB00015E05BE4A52E88248394EE24EA94F12CAE
:101BC0007BE4C72ED12C80910B01081708F08FC041
:101BD000C02FD0E01C9FF0011D9FF00D1124E0519B
:101BE000FE4F911003C01382128267C0238122230B
:101BF00089F1215023833481332319F09A2D921BCC
:101C000001C0922F8091EF021C9FF0011D9FF00DEB
:101C10001124E051FE4F899FC0011124B6010E949A
:101C20007E316283211104C0332311F01482A38218
:101C300022E02B1508F441C01C9FF0011D9FF00D00
:101C40001124E051FE4F8091ED0280838091EE02DD
:101C5000818333C00E944B328230914074F582E020
:101C60008B1530F40E944B32B7010E94923102C0B2
:101C70008091ED021C9FF0011D9FF00D1124E05199
:101C8000FE4F808322E02B1558F40E944B322091A6
:101C9000EE022695622F70E00E949231820F02C000
:101CA0008091EE021C9FF0011D9FF00D1124E05168
:101CB000FE4F81831282A3828482809109019E015A
:101CC000280F311DC901880F991F280F391F2F5068
:101CD0003D4F1C9FF0011D9FF00D1124E051FE4F60
:101CE0004281618180810E94AC090F5F6CCFDF91DE
:101CF000CF911F910F91FF90EF90DF90CF90BF9009
:101D0000AF909F908F900C942B0AECEEF2E08081C4
:101D10008E7F808360817181828193810E94D1094D
:101D200010920E022FEF80E792E021508040904009
:101D3000E1F700C000000C942B0AECEEF2E0808189
:101D40008E7F808310920E022FEF80E792E0215069
:101D500080409040E1F700C000000C942B0A1092E4
:101D60000E0280910B0281110AC081E080930B0268
:101D70008091EC02817080930A020C949D0E08956C
:101D80006091EC02669570E04BE050E08CE091E0F1
:101D90000E945B32892B19F481E080930E020E942D
:101DA0004621909305028093040208959091EC02DD
:101DB00090FF35C09170811102C0926006C08B32D5
:101DC00010F0946502C0880F982B9093EC02662364
:101DD00051F06091EC027091ED028091EE029091D1
:101DE000EF020E94D1096091EC02669570E04BE031
:101DF00050E08CE091E00E945B32892B19F0109248
:101E00000E0202C00E94C00E81E080930702409142
:101E1000EF026091EE028091ED020C94CF0B0895D9
:101E2000682F9091EC02969581E0890F8B3208F033
:101E300081E00C94D60E81E00C94100F682F9091E5
:101E4000EC0296958FEF890F09F48AE20C94D60E76
:101E500081E00C941E0F61E00C94D60EECEEF2E0E3
:101E600080818160808386950C942B0F8091EC0299
:101E700080FD0C94850E0C942E0F60E00C94D60E11
:101E800080910C0281112EC00E94481F811104C054
:101E90000E94F41F0E94E3090E94CD096093EC02A6
:101EA0007093ED028093EE029093EF026E7F61F4E7
:101EB0000E94E3090E94CD096093EC027093ED0249
:101EC0008093EE029093EF020E94BA0910920E02E4
:101ED0008091EC0280FF03C086950E943D0F81E057
:101EE00080930C020895ECEEF2E0808181608083A3
:101EF00086950C943D0F10920B0280910A0281117D
:101F00000E94730F0C94C00E0F931F93CF93DF9317
:101F100080910E02882309F49CC080910D02E0910B
:101F2000EC02E695E81BE0930602823049F4F0E00B
:101F3000EB57FE4FE491CE2FD0E004E81AE059C0F1
:101F4000863049F4F0E0EE57FE4FE491CE2FD0E01A
:101F500008E91AE04EC0893051F4E695F0E0E15806
:101F6000FE4FE491CE2FD0E002ED1BE042C08F3057
:101F700051F4E695F0E0E458FE4FE491CE2FD0E026
:101F80000DE01CE036C0853149F4F0E0E758FE4F23
:101F9000E491CE2FD0E002E81CE02BC08831D9F0CC
:101FA000833239F4E7E7F1E0C591D49108EA1AE009
:101FB00020C08432A9F08532C1F48E2F63E00E94E4
:101FC0007231E92FF0E0EC58FE4FE491CE2FD0E0D3
:101FD00006EC1DE00EC0C8E2D0E004EF1CE009C032
:101FE000C4EFD1E007E81DE004C0C0EDD7E008EA87
:101FF00019E080910702882389F0109207020E945D
:1020000046219E0120953095820F931F90930502E3
:102010008093040210920902109208028091040237
:10202000909105020E9452218C179D0790F0E0913B
:102030000402F0910502CE0FDF1FD0930502C0937A
:10204000040284E092E0F801DF91CF911F910F919B
:102050000994DF91CF911F910F910895882311F07A
:10206000FA0101C0FB010994CF93DF93C82FD62F4B
:102070000E94F2098C1740F00E94F2098D1720F49B
:10208000DF91CF910C941B0F8C2FDF91CF910C948B
:102090002B0F0F931F93CF93FB01C281CC2309F425
:1020A00063C08C010E94941E8272F801E35CFC45BF
:1020B000E431F10508F059C0ED59FF4F0C94C831D7
:1020C0000E94360F06C048E25FE06BE17FE00E94AD
:1020D0002E10C0E04AC04BE15FE068E27FE0F7CF3E
:1020E00040E95BE063E87BE0F2CF43E85BE060E976
:1020F0007BE0EDCF4EEA5BE06FE97BE0E8CF4FE9B4
:102100005BE06EEA7BE0E3CF4CEC5BE06DEB7BE009
:10211000DECF4DEB5BE06CEC7BE0D9CF45E25AE0E3
:102120006EE07AE0D4CF4EE05AE065E27AE0CFCFBD
:1021300081E017C065E082E010C068E086E00DC075
:102140006EE089E00AC064E18FE007C067E185E1E5
:1021500004C088E106C062E289E10E943410B9CF70
:1021600083E20E942B0FB5CFC1E08C2FCF911F913E
:102170000F910895279A25B12F7735B130684FB761
:10218000F894FC01CB01880F991F680F791F6E0F1F
:102190007F1FE617F70789F0819198E035B90000B5
:1021A00000C087FF25B9880F000000C000C000C034
:1021B00025B900C09A9591F7ECCF4FBF8FE594E019
:1021C0000197F1F700C0000008950C94080350989F
:1021D000589A5198599A89B18170499902C090E0F2
:1021E00001C092E0892B809311020895E0911102C1
:1021F000EE0FEE0FE093110249B1842F817090E051
:1022000049B141FB222720F930E041FF02C022E022
:1022100030E0822B932B8E2B809311028F70E82F4E
:10222000F0E0E656FE4F908180911002890F809376
:10223000100284304CF080910F028F5F80930F0268
:1022400060E080E00E94E510809110028D3F4CF428
:1022500080910F02815080930F0261E080E00E9424
:10226000E51080911002082E000C990B64E070E0DC
:102270000E949231809310020895CF93DF9397FFCD
:102280000DC0FB012281222349F0EC010E9468115C
:10229000CE019F770E94BF110E94A11181E0DF91C2
:1022A000CF9108958CE090E00E94713290E0A0E020
:1022B000B0E08093FD029093FE02A093FF02B093E2
:1022C000000308956091FD028CE090E00C9485324B
:1022D0000E942C1486958170809302039091FD02D8
:1022E000913029F4882319F089E30E9417160E947F
:1022F000941E809301030E94A71E8091FD028130ED
:1023000071F048F0823081F08430A1F486EE0E94B2
:10231000171688E10DC082EE0E948D150BC088E172
:1023200093E00E947F0306C082EE0E948D1587E530
:102330000E9417168FE39CE90197F1F700C0000097
:1023400008958091FD02813039F078F0823069F093
:10235000843089F488E20DC08CE20E9417168091C7
:102360000203882341F089E304C082EE0E94E31552
:1023700002C00E941716809101030C94A41E0F93B3
:102380001F93CF93DF938C01CCE0D0E0C8010C2EDB
:1023900002C0969587950A94E2F78F700E94E50334
:1023A0000E947F032497CC3F8FEFD80779F7DF9106
:1023B000CF911F910F9108950F931F93CF93DF93A8
:1023C000EC018B01FB018281882361F00E94941E45
:1023D000CE01825E9C458530910520F48093FD02FC
:1023E0000E946211B801CE01DF91CF911F910F9130
:1023F0000C943D110F931F93CF93DF93C42FD22FD3
:10240000FC0182818823C9F0409314020E94462176
:10241000909313028093120280E28C0F883008F0B0
:1024200057C0C77081E001C0880FCA95EAF7DF91F5
:10243000CF911F910F910C942A168091140248138A
:1024400030C080911202909113020E945221883C68
:10245000910538F510E21D0FCD17B9F080E28C0F11
:10246000883040F4C77081E001C0880FCA95EAF750
:102470000E943116183028F581E09D2F977001C019
:10248000880F9A95EAF70E942A16802F0E94171645
:102490001830F0F4D77081E001C0880FDA95EAF7C0
:1024A0000AC080E28C0F883098F4C77081E001C0C8
:1024B000880FCA95EAF7DF91CF911F910F910C9485
:1024C0003116802FDF91CF911F910F910C94171629
:1024D000DF91CF911F910F9108950F939C01CB0134
:1024E000243F4CE5340731F188F4293DFCE53F07F2
:1024F000D9F02A3D4CE5340779F1283D3C45A9F552
:1025000006E221EE41EE68ED7CE52BC0263FFCE5BE
:102510003F07E1F0A8F0273F3C4539F507E225EEFB
:1025200046EE67EF7CE51DC007E225EE45EE69ED5E
:102530007CE517C006E221EE40EE64EF7CE511C0B9
:1025400007E225EE44EE65EF7CE50BC006E221EEE6
:1025500042EE66EF7CE505C008E221E045EE6AED5B
:102560007CE50E94FA1180E008C0FC01828188238A
:1025700019F01092140201C081E00F910895CF93D9
:10258000DF93EC01FB018281882309F41FC1C23073
:10259000FCE5DF0708F41BC1C6319CE5D90738F01C
:1025A0009E012B5F3C452930310508F010C10E9487
:1025B000601F9093080380930703C031ECE5DE07AA
:1025C00009F4C3C008F041C0C8308CE5D80709F44D
:1025D0009AC0F0F4C430ECE5DE0709F487C068F473
:1025E000C2308CE5D80709F477C0C330DC4509F068
:1025F000E3C080910703826076C0C630ECE5DE0759
:1026000009F46EC008F07BC08091070388606BC03E
:10261000CC308CE5D80709F485C068F4CA30ECE505
:10262000DE0709F474C008F079C00E94C8188091D0
:102630000703806858C0CE308CE5D80709F476C00F
:1026400008F07FC0809107038BC0CC3FECE5DE072C
:1026500009F44FC018F5C3318CE5D80709F47DC0E3
:1026600078F4C131ECE5DE0709F473C0C231DC4512
:1026700009F0A2C00E94C818809107038F7733C069
:10268000C5318CE5D80709F472C008F486C0CB3F89
:10269000DC4509F091C0809108033EC0C115FDE5FD
:1026A000DF0709F45FC058F4CE3F9CE5D90709F471
:1026B00044C008F43FC08091080382602DC0C2303E
:1026C000FDE5DF0709F475C008F45DC0C330DD45E2
:1026D00009F072C080E06EC080910703816003C082
:1026E0008091070380618093070366C08091070390
:1026F00011C0809108038260809308035DC08091BF
:1027000007038062F0CF809107038064ECCF809153
:10271000070388608460E7CF8160EECF8091070374
:102720008E7FE1CF809107038D7FDDCF80910703FE
:10273000877FD9CF8091080318C0809108038D7FCF
:10274000DBCF809107038F7ECECF809107038F7DF3
:10275000CACF809107038F7BC6CF80910703877F05
:102760008B7FC1CF809108038D7F8E7FC5CF8091F5
:10277000070382FB222720F991E0922790FB82F940
:1027800090FB83F9B0CF80910803982F90959170BA
:102790008E7F892B90FB81F9AFCF0E94C818809162
:1027A000070387FB222720F991E0922790FB87F906
:1027B0009ACF81E00E94F61F809107039091080351
:1027C0000E94711F0E94C81880E001C081E0DF9163
:1027D000CF910895CF93DF9386319C4541F5EB016E
:1027E0000E94941E982F8A81209117013091180120
:1027F000882379F09A7A81E009F480E080931502C9
:10280000911102C069E201C065E3C9010E949120F3
:102810000AC080911502811102C069E201C065E31E
:10282000C9010E949C200E94E51E80E001C081E059
:10283000DF91CF91089590931B0280931A0208951F
:10284000E0911A02F0911B02309721F00190F08183
:10285000E02D099480E00895E0911A02F0911B02A6
:10286000309711F480E008950190F081E02D0995F2
:102870000895E0911A02F0911B02309799F020918F
:102880003701222359F02091070327FF07C0DC01FD
:102890002C9111962C93119725E02C930280F381B3
:1028A000E02D09940895E0911A02F0911B023097EF
:1028B00039F022E0DC012C930480F581E02D0994AD
:1028C000089520911802309119022817390771F0E4
:1028D0009093190280931802E0911A02F0911B0262
:1028E000309721F00680F781E02D0994089520911A
:1028F0001602309117022817390771F090931702CA
:1029000080931602E0911A02F0911B02309721F099
:102910000084F185E02D0994089585B7806885BF0E
:1029200085B7806885BF089581E008950C9494145C
:1029300008950C9498140C9498140C949B140C9473
:1029400098140C949F140C9498140E948D140E9457
:10295000A3140C94A1140E943D210E94E8060E9439
:10296000AB210E94400F0E94E7100C949D14AF927F
:10297000BF92CF92DF92EF92FF920F931F93CF936C
:10298000DF93CDB7DEB72A970FB6F894DEBF0FBE40
:10299000CDBF0E9499140E9498140E940C070E94B7
:1029A0009614811111C08FEF89838A831B820E9444
:1029B00046218160782F9D838C8349815A816B8168
:1029C0008D810E94591540C08DE1A82E82E0B82E5D
:1029D00000E010E0C02E802F0E94BD06E82EF50119
:1029E000D1905F01D82631F40F5F1F4F03301105DE
:1029F00089F7D9CF8091900281FD0E94C30680E0C3
:102A0000FF24F3949D2D9F21D1F08E83CF82EF2060
:102A100081E009F480E088870E9446218160782F58
:102A20009A8789874E815F8168858A850E945915BA
:102A3000F801E35EFD4F8081F826F08205C08F5FCC
:102A4000FF0C8330F9F6D0CF0E94840F0E94F6105D
:102A50000E945A230E9410090E94201490911C0287
:102A60008917B1F00E94201480931C022A960FB699
:102A7000F894DEBF0FBECDBFDF91CF911F910F91B4
:102A8000FF90EF90DF90CF90BF90AF900C94A30495
:102A90002A960FB6F894DEBF0FBECDBFDF91CF915F
:102AA0001F910F91FF90EF90DF90CF90BF90AF906C
:102AB0000895CF93DF93CDB7DEB72B970FB6F89479
:102AC000DEBF0FBECDBF4F83588769877A878B875C
:102AD000DE01119686E0FD0111928A95E9F785E005
:102AE000FE01379601900D928A95E1F749815A814E
:102AF0006B817C818D819E810E94811B2B960FB6FC
:102B0000F894DEBF0FBECDBFDF91CF910895FC01D9
:102B1000808191810E94551E0895CF93882309F4E6
:102B200050C0C82F8CEF8C0F813AD0F46C2F80915D
:102B30001701909118010E941120882349F06C2FF1
:102B400080911701909118010E949C200E94E51E1F
:102B50006C2F80911701909118010E9491200CC058
:102B600080E28C0F883058F4C77081E001C0880F74
:102B7000CA95EAF70E94971ECF910C94E51EEBE5EB
:102B8000EC0FE33040F4F0E0E852FE4F808190E03B
:102B9000CF910C946114E8E5EC0FE73150F4F0E0CC
:102BA000EE0FFF1FE655FE4F80819181CF910C946F
:102BB0007714C03F30F08C2F0E944F22CF910C949D
:102BC0003C23CF910895882389F19CEF980F913A87
:102BD00040F4682F80911701909118010E949C2069
:102BE0000DC090E2980F983058F4877091E001C0C2
:102BF000990F8A95EAF7892F0E949D1E0C94E51E75
:102C00009BE5980F933020F480E090E00C946114E1
:102C100098E5980F973120F480E090E00C947714B9
:102C2000803F20F00E94B7220C943C230895CF935C
:102C3000C82F0E948D15C93349F42FEF87EE93E01A
:102C4000215080409040E1F700C000008C2FCF91D0
:102C50000C94E315882321F00E94971E0C94E51E26
:102C60000895882321F00E949D1E0C94E51E08956E
:102C7000CF92DF92EF92FF920F931F93CF93DF9348
:102C80007C01062FC72FFC01158112951F70D28180
:102C9000D1110E94B71E0E948D1E882399F0DD235A
:102CA00089F08C2F807F803421F080E2800F883083
:102CB00048F082E00E942F1F0E948D1E91E0D82EC6
:102CC000D92601C0D12CCC2EC2948FE0C8228C2DE5
:102CD00090E0FC01E958FF4F0C94C8318C2F807FA5
:102CE000CF70882311F0C295C07FDD2399F0CC23EB
:102CF00009F48DC180E2800F883010F0011104C00A
:102D00008C2F0E94971E03C08C2F0E94AA1E0E9427
:102D1000E51E7DC1802F0E94E315CC2309F49CC1E0
:102D200080E2800F883010F0011104C08C2F0E94C7
:102D30009D1E03C08C2F0E94B01E0E94E51E8CC1F8
:102D40008C2F807FCF70803211F0C295C07F00231E
:102D500019F00130C9F022C0DD2371F0112341F0D8
:102D6000113031F40E94CA1E8C2B0E94D21E74C1F5
:102D70000E94CA1E8C2B1DC0112319F0113009F4BA
:102D80006BC10E94DB1E25C0DD2321F0163008F048
:102D900063C10EC0153008F05FC11BC0DD2361F0B8
:102DA000112331F0F701858180FF31C18F70858358
:102DB0008C2F0E942A1650C1112359F0093309F0B3
:102DC00037C1FFEF27EE83E0F15020408040E1F76C
:102DD0002DC18C2F0E9431163FC18C2F8695869570
:102DE000837019F0813061F037C1DD2321F0802F2D
:102DF0009C2F937002C080E090E00E94611434C167
:102E0000DD2321F0802F9C2F937002C080E090E0A2
:102E10000E94771429C1802FDD2319F00E944F22D0
:102E200002C00E94B7220E943C231EC18C2F8370D7
:102E300009F045C0D11114C1402F42954695477005
:102E4000440F440F602F6F70862F90E0A0E0B0E039
:102E5000042E04C0880F991FAA1FBB1F0A94D2F723
:102E600004FF10C00FE010E020E030E004C0000FCD
:102E7000111F221F331F4A95D2F7009510952095F8
:102E8000309503C000E010E09801C695C695C37068
:102E9000BC01CD01602B712B822B932BC23049F0EA
:102EA00058F4C13019F00E94D21CDAC00E94C01C34
:102EB000D7C00E94E41CD4C00E94BE1CD1C0DD2338
:102EC00019F08C2F817001C08695882309F4C8C041
:102ED000402F429546954770440F440F602F6F7006
:102EE000862F90E0A0E0B0E0042E04C0880F991F68
:102EF000AA1FBB1F0A94D2F704FF10C00FE010E016
:102F000020E030E004C0000F111F221F331F4A953C
:102F1000D2F7009510952095309503C000E010E0A1
:102F20009801C695C695C370BC01CD01602B712B6D
:102F3000822B932BC23049F058F4C13019F00E9413
:102F4000971D8EC00E94851D8BC00E94A91D88C040
:102F50000E94F81C85C0CF70DD2339F08C2F0E94B1
:102F60001E1D802F0E942A167BC0802F0E943116C2
:102F70008C2F0E943F1D74C0023F01F128F4003FD6
:102F800041F0013FA1F03FC0033FF9F0043F39F1A8
:102F90003AC0DD2341F0153008F05EC08C2F8F71F0
:102FA0000E94641D59C0163008F056C0F7CFDD23CB
:102FB00039F08C2F8F710E941E1D4EC0DD23C9F386
:102FC0008C2F8F710E943F1D47C0DD2329F08C2F6D
:102FD0008F710E94091D40C00E94041D3DC0DD2369
:102FE00049F0CF718C2F0E941E1D63E08C2F0E9430
:102FF0001A1F32C081E00E942F1F123068F182E058
:103000000E942F1F29C0DD2331F0112391F2802F60
:103010000E948D1521C0112399F2093349F49FEFC5
:10302000E7EEF3E09150E040F040E1F700C000002F
:10303000802F0E94E31510C04C2F4F70602FC701E6
:103040000E94AC040E942F1C0FC04C2F4F70602FA9
:10305000C7010E94AF0408C088EF8C0D843020F4B3
:103060000E9420140E94A304DD20C9F00E94891E42
:1030700080FD15C0F70112820E94831E0E941E1D52
:10308000C7010E9470180E94831EDF91CF911F918B
:103090000F91FF90EF90DF90CF900C943F1DDF9148
:1030A000CF911F910F91FF90EF90DF90CF900895F7
:1030B0000F931F93CF93DF93EC01688179818A810D
:1030C0000E94601E8C010E94BB1D0E94AC1CB801B6
:1030D000CE010E943816DF91CF911F910F91089574
:1030E000CF93DF93EC01988189812B813C81232B45
:1030F00031F08F3F31F481E09F3F19F403C081E04C
:1031000001C080E080FD19C0CE010E94030481113E
:103110000CC00E948D1E882381F08A81882369F06B
:1031200082E0DF91CF910C942F1FCE010E9458189E
:10313000CE01DF91CF910C94CE03DF91CF91089512
:10314000882321F00E94AA1E0C94E51E089588236E
:1031500021F00E94B01E0C94E51E08950E94B71E37
:103160000E94C71E0E94E51E0E946D240E943C23FF
:1031700080E090E00E94611480E090E00C9477146D
:1031800080911701909118010E94A7200C94AE180D
:103190000E94A71E0C94C018E92FE295EF704E2FE5
:1031A00050E0FA013297EE30F105B0F4E957FF4FE5
:1031B0000C94C831803F91F018F4883E68F40EC03A
:1031C000843F51F40BC0883E48F0813F29F406C08B
:1031D00093FB882780F9089580E0089581E00895A1
:1031E0000E94551E0E94CC180895CF93DF9300D003
:1031F00000D01F92CDB7DEB70F900F900F900F90B9
:103200000F90DF91CF910895CF93DF9300D000D03E
:1032100000D0CDB7DEB726960FB6F894DEBF0FBE4E
:10322000CDBFDF91CF9108951F93CF93DF93C091CE
:10323000210216E080912202C81799F0D0E01C9F6D
:10324000F0011D9FF00D1124ED5DFD4F4081518176
:1032500062817381848195810E9404192196C770CF
:10326000E9CFDF91CF911F91089540915302509182
:1032700054026091550270915602809157029091CC
:1032800058020C9404190F931F93CF93DF938091EE
:10329000580282958F7009F05DC080915502882395
:1032A00009F458C0809121021091220260915302CA
:1032B00070915402C0915602D091570291E06F3F35
:1032C00009F090E0292F06E0811709F443C0209708
:1032D00021F07F3F21F030E003C031E001C0322F08
:1032E00090E030FD34C0089FF001099FF00D1124DB
:1032F000DF01AD5DBD4F11963C911197371327C08B
:103300003C91361324C012963C91129731111FC084
:1033100013964D915C9114974C1B5D0B483C5105E5
:10332000B0F4809158028F70806180935802E85DFC
:10333000FD4F80818F708061808383E592E00E94E1
:103340007018DF91CF911F910F910C941419019671
:103350008770BACFDF91CF911F910F9108959F92FF
:10336000AF92BF92CF92DF92EF92FF920F931F9393
:10337000CF93DF93CDB7DEB761970FB6F894DEBF7A
:103380000FBECDBF8C0185E0F801DE011D960190D6
:103390000D928A95E1F7F80140815181E280909188
:1033A0005302609154022091560230915702211528
:1033B000310531F06F3F31F481E09F3F19F403C0D4
:1033C00081E001C080E0F82FF1709F2E80FD46C1A2
:1033D000F801A380B48083E5C82E82E0D82EF09057
:1033E0005502F501E21BF30BFF2009F4DFC08091C9
:1033F0005802E83CF10508F09BC0282F207F09F017
:1034000052C0561313C0491311C0FE2CE1100EC058
:103410008F708061809358020E943519C6010E9406
:10342000701880915802F801858358C1AB2831F09B
:103430005F3F31F481E04F3F19F403C081E001C0E8
:1034400080E080FD03C081E08E2502C080E090E036
:10345000F82FF170FF2E80FF1CC080912102209177
:10346000220236E0821709F417C190E0389FF0017C
:10347000399FF00D1124ED5DFD4F6181561306C09B
:103480006081461303C06281E61203C00196877013
:10349000E9CFFE2CEE2009F421C180915802816011
:1034A000809358025AC0561306C0491304C0E11055
:1034B00002C0F8019FC04D875E878D859E850E9462
:1034C000F018882379F1EE2069F120915802822FBB
:1034D00082958F7090E0029774F0809153029091E2
:1034E000540298878F831986BB86AA862C87CE01C3
:1034F00007960E94701886E0F801A3E5B2E00190FB
:103500000D928A95E1F70E9443190E9435190DC06A
:10351000561729F14D875E878D859E850E94F0188C
:1035200081112CC0C8010E947018FF24F394D6C0EA
:10353000282F207F69F77A2DB98AA88A6E2D89896C
:103540000E94F51883E592E00E94701886E0F6016B
:1035500011928A95E9F70E943519F12CBFC04913E1
:10356000D9CFE110D7CFF8018583C8010E94701828
:1035700086E0F60111928A95E9F7B0C0EE2091F24B
:1035800020915802822F82958F7090E002970CF460
:10359000B2CF80915302909154029A8389831B8207
:1035A000BD82AC822E83CE010196A3CFE83CF1050B
:1035B00008F047C0FE2CEE2009F4B4CF561330C0FB
:1035C00049132EC02091580220FD21C0822F8295E0
:1035D0008F70482F50E041155105C9F0F80125833F
:1035E0004F30510541F08F5F982F9295907F822F39
:1035F0008F70892B8583C8010E94701886E0F801BE
:10360000A3E5B2E001900D928A95E1F742C086E011
:10361000F801A3E5B2E001900D928A95E1F75EC052
:103620004D875E878D859E850E94F018811163CF3E
:1036300080915802816080935802C8010E947018DE
:103640004DC07A2DB98AA88A6E2D89890E94F518F5
:1036500086E0F60111928A95E9F71BC0EE2009F485
:1036600061CF4D875E878D859E850E94F018F82E6C
:10367000882309F457CF86E0F801A3E5B2E0019072
:103680000D928A95E1F783E592E00E9487150E94EA
:1036900043190E94351922C04D875E878D859E850E
:1036A0000E94551E292F22952F70223028F49F70DA
:1036B00039F0811105C00BC0243028F49F7049F403
:1036C000805E883020F0C8010E9470189F2CF92C71
:1036D00005C0F8019581907F99F7F9CF8F2D6196FC
:1036E0000FB6F894DEBF0FBECDBFDF91CF911F9113
:1036F0000F91FF90EF90DF90CF90BF90AF909F9091
:1037000008951F93CF93DF93CDB7DEB72C970FB6F5
:10371000F894DEBF0FBECDBF4F83588769877A8785
:103720008B879C87CE0107960E94AF198823D1F022
:103730009F8188852A853B85232B31F08F3F31F48B
:1037400081E09F3F19F403C081E001C080E080FD6B
:1037500047C04F81588569857A858B859C850E94F5
:1037600004193EC086E0FE013796DE0111960190F5
:103770000D928A95E1F7FF81E8856A857B85611561
:10378000710531F0EF3F31F481E0FF3F19F403C0E0
:1037900081E001C080E080FD23C02091220230E062
:1037A000C9010196877099274091210250E0841742
:1037B0009507F1F1F983EA837D836C8396E0929F0C
:1037C000D001939FB00D1124AD5DBD4FFE01319628
:1037D00001900D929A95E1F7809322020E941419AC
:1037E00016E08091210290912202891771F1189FB1
:1037F000C00111248D5D9D4F0E94AF19882329F1CE
:10380000E09121021E9FF0011124ED5DFD4F4081EA
:10381000518162817381848195810E940419809114
:10382000210290E001968770992780932102D9CFD9
:103830000E94C8181092220210922102E3E5F2E0E1
:1038400086E0DF011D928A95E9F72C960FB6F89471
:10385000DEBF0FBECDBFDF91CF911F910895EF92D4
:10386000FF920F931F93CF93DF938C01892B09F461
:103870006CC0F12CEE24E394E8012196F8018491C8
:10388000843740F4843008F051C0813081F08230B8
:1038900019F15BC0853709F444C0A8F19CE7980F83
:1038A000903708F052C08F770E94E31541C00E5F39
:1038B0001F4FFE01849190E2980F983050F487706A
:1038C000FE2D01C0FF0F8A95EAF78F2F0E94BA1EC6
:1038D00014C00E948D152DC00E5F1F4FFE018491F4
:1038E00090E2980F983060F48770FE2D01C0FF0FB2
:1038F0008A95EAF78F2F0E94C01E0E94E51E19C00C
:103900000E94E31516C00E5F1F4FFE01C491CC2329
:1039100081F08FE99FE00197F1F700C00000C150EE
:10392000F6CF0E5F1F4FFE01F49003C00E948D156D
:103930008E018F2D882309F49FCFEFE9FFE03197A7
:10394000F1F700C000008150F5CFDF91CF911F91BA
:103950000F91FF90EF900895089508950C94AD1C79
:103960000C94AE1C0E94B01C6093670270936802B6
:103970008093690290936A020C94AE180C94B21C66
:103980000F931F93009167021091680220916902C2
:1039900030916A02602B712B822B932B1F910F9118
:1039A0000C94B21C0F931F93009167021091680250
:1039B0002091690230916A0260237123822393234C
:1039C0001F910F910C94B21C0F931F9300916702EB
:1039D000109168022091690230916A026027712774
:1039E000822793271F910F910C94B21C0C94AD1C4D
:1039F0000E94F61C609363027093640280936502D8
:103A0000909366020C94AE1860E070E0CB010C94C9
:103A1000F81C0F931F9341E050E060E070E08A01D2
:103A20009B0104C0000F111F221F331F8A95D2F77C
:103A3000C901B8011F910F910C94F81C0F931F93AB
:103A400041E050E060E070E004C0440F551F661F85
:103A5000771F8A95D2F78091630290916402A091BA
:103A60006502B09166028A019B01082B192B2A2B53
:103A70003B2BC901B8011F910F910C94F81C0F93B7
:103A80001F9341E050E060E070E004C0440F551F18
:103A9000661F771F8A95D2F740955095609570956F
:103AA0008091630290916402A0916502B0916602D8
:103AB0008A019B01082319232A233B23C901B8014A
:103AC0001F910F910C94F81C0F931F9341E050E04D
:103AD00060E070E004C0440F551F661F771F8A9591
:103AE000D2F78091630290916402A0916502B09137
:103AF00066028A019B01082719272A273B27C9014B
:103B0000B8011F910F910C94F81C0F931F93009113
:103B10006302109164022091650230916602602B6D
:103B2000712B822B932B1F910F910C94F81C0F93E8
:103B30001F930091630210916402209165023091FD
:103B4000660260237123822393231F910F910C94AB
:103B5000F81C0F931F93009163021091640220914F
:103B600065023091660260277127822793271F9193
:103B70000F910C94F81C0895292F220F920F890F92
:103B8000E82FE695E695E695877051E001C0550F60
:103B90008A95EAF785E0E89FF0011124E75AFD4F86
:103BA00020E030E070E04081CB01022E02C096950B
:103BB00087950A94E2F7817081958427852384276D
:103BC00081932F5F3F4F2530310569F70895292FE5
:103BD000220F920F890F682F669566956695982F2C
:103BE000977085E0689FB001112440E050E080E0CC
:103BF000FB01E40FF51FE75AFD4F208130E0092E4D
:103C000002C0369527950A94E2F721703327042ED7
:103C100001C0220F0A94EAF7822B4F5F5F4F4530B5
:103C2000510531F70895BF92CF92DF92EF92FF9244
:103C30000F931F93CF93DF938C01C0906302D090BA
:103C40006402E0906502F0906602809167029091B4
:103C50006802A0916902B0916A02C82AD92AEA2AA8
:103C6000FB2ACFE1D0E0D701C6010C2E04C0B695E7
:103C7000A795979587950A94D2F780FD04C0219760
:103C800090F7B12C07C0BC2EB8018C2F0E94CE0437
:103C90000197A9F38B2DDF91CF911F910F91FF9089
:103CA000EF90DF90CF90BF900895CF93DF93EC011A
:103CB0000E94131EBE010E94CE04DF91CF91089591
:103CC0001F93CF93DF93EB0190912002992321F072
:103CD000CB010E94551E13C0882349F0CB010E94DE
:103CE000131E182F682FCE010E94BC1D04C0CB01EB
:103CF0000E94E71D182FBE01812F0E94CE04DF9184
:103D0000CF911F91089580916B028595859585953A
:103D1000089580916B028770089590916B0297705F
:103D200081E009F480E0089580918F0208959091D8
:103D30008F02892B80938F020895809590918F0236
:103D4000892380938F02089580938F0208951092A3
:103D50008F02089590918E02892B80938E02089590
:103D6000809590918E02892380938E0208951092FF
:103D70008E02089590918D02892B80938D02089573
:103D8000809590918D02892380938D0208951092E1
:103D90008D02089580916C02089508950C94CD1EB3
:103DA0000C94CE1E90916C02981721F080936C02B7
:103DB0000C94D01E089580916C02882329F01092F3
:103DC0006C0280E00C94D01E0895E0911701F091F0
:103DD000180180918F028083E0911701F091180102
:103DE000908180918E02892B8083E0911701F09160
:103DF0001801908180918D02892B808380916C02C3
:103E0000882381F0E0911701F09118019081892BAE
:103E1000808380911701909118010E94FB1F8111EE
:103E20000E94DB1E80911701909118010C943914A7
:103E30000C94CD1E98E0899F90011124262B20938D
:103E40006B020E941E1D80916B028595859585955C
:103E50000C94181F10926B0280E00C94181F209194
:103E60006B028095822380936B02982F977079F470
:103E700030E0482F082E000C550B2417350739F079
:103E80008595859585950E943F1D0C942A1F089560
:103E900080E090E00E947F3221E08C3E9E4F09F04E
:103EA00020E0822F089582E090E00C94713283E04C
:103EB00090E00C947132682F83E090E00C9485328E
:103EC000CF9384E090E00E947132C82F81E290E0AD
:103ED0000E9471322C2F30E0A901582BCA01CF91DA
:103EE0000895CF93C92F682F84E090E00E94853217
:103EF0006C2F81E290E0CF910C948532AB01BC0134
:103F00008FE090E00C949732AB01BC0183E190E02C
:103F10000C94973260E070E0CB010C94841F60E059
:103F200070E0CB010E947E1F0C948A1F6CEE7EEF26
:103F300080E090E00E94A33260E082E090E00E9486
:103F4000853260E083E090E00E9485321092670243
:103F5000109268021092690210926A0260E084E096
:103F600090E00E94853260E081E290E00E9485321C
:103F700060E085E090E00E94853260E086E090E0BD
:103F80000E9485326FEF87E090E00E94853240E02A
:103F900050E0BA0188E090E00E94973260E08DE046
:103FA00090E00E94853240E050E0BA0188E190E064
:103FB0000E94973260E087E190E00E94853240E005
:103FC00050E0BA018CE190E00E94973260E080E21C
:103FD00090E00E94853240E050E0BA0188E190E034
:103FE0000E9497320C948F1F0C94961F682F8EE0BE
:103FF00090E00C948532FC01329680913701882341
:1040000031F08091070387FF02C09EE101C096E076
:1040100080E0915028F021912223D9F38F5FF9CFCE
:104020000895662351F1209137012223E9F0209170
:10403000070327FF19C0462F4695469546954E31F2
:10404000E0F4677021E030E002C0220F331F6A9570
:10405000E2F7FC01E40FF11D828190E0282339236F
:1040600081E0232B69F409C0FC0132960896219166
:10407000621729F0E817F907D1F780E0089581E089
:1040800008959C01FC0132969FEF80E04191461714
:1040900089F09F3F19F4411101C0982F8F5F86303E
:1040A000A9F79F3F39F0F901E90FF11D97FDFA9546
:1040B0006283089508959C012A5F3F4FFC0142816D
:1040C000461301C01282019682179307B9F708952B
:1040D000262F2695269526952E3168F4FC01E20FB1
:1040E000F11D677021E030E001C0220F6A95EAF708
:1040F0008281282B22830895262F269526952695A2
:104100002E3170F4FC01E20FF11D677021E030E008
:1041100001C0220F6A95EAF7209582812823228325
:10412000089520913701222329F02091070327FDCC
:104130000C9468200C94412020913701222329F00F
:104140002091070327FD0C947C200C945B20209188
:104150003701FC013296222331F08091070387FF5B
:1041600002C08EE101C086E0DF011D928A95E9F769
:10417000089508950C94B9200C94B920CF930E940F
:10418000BC200E940C070E94BA20C0E08C2F0E9425
:10419000BD06811104C0CF5FC330C1F701C081E00B
:1041A000CF9108950C94B9200C94D2200E94D42071
:1041B0008091FA03843059F11092910220E488E151
:1041C00090E00FB6F894A895809360000FBE2093FE
:1041D000600080E00E94A3040E94AF0E0E94D420E1
:1041E00083B7817F846083BF83B7816083BF789406
:1041F000889583B78E7F83BF0FB6F894A89580917A
:104200006000886180936000109260000FBE089586
:104210000C94B9200E94C8180E9420140E94A30484
:104220000E947B0F0C9408211F920F920FB60F92E1
:1042300011248F939F93AF93BF938091910281112B
:1042400013C08091030390910403A0910503B091E2
:1042500006034196A11DB11D8093030390930403AF
:10426000A0930503B0930603BF91AF919F918F91E7
:104270000F900FBE0F901F90189582E084BD93E0C1
:1042800095BD9AEF97BD80936E0008952FB7F8946F
:104290008091030390910403A0910503B09106035C
:1042A0002FBF08959C014FB7F8948091030390911C
:1042B0000403A0910503B09106034FBF821B930B2B
:1042C000089578941F920F920FB60F9211248F9336
:1042D0009F93AF93BF938091030390910403A091A8
:1042E0000503B09106030196A11DB11D8093030340
:1042F00090930403A0930503B0930603BF91AF917D
:104300009F918F910F900FBE0F901F90189581E095
:104310008093E00080E28093D8001092C9008FE182
:104320009EE40197F1F700C0000087E090EBDC010C
:104330008093030490930404A0930504B0930604AF
:104340009CE088E10FB6F894A895809360000FBEBA
:1043500090936000FFCF0E94481F811102C00E940D
:10436000F41F0E94531F809390020E94601F90933D
:104370000803809307030E94571F682F70E080E0B6
:1043800090E00E94BE1C6091630270916402809173
:104390006502909166020C94F61C8091980280FF51
:1043A0000BC060911E0185E0689FB00111247595D6
:1043B0006795759567952BC081FF09C060911E01B7
:1043C00085E0689FB00111247595679520C082FF34
:1043D00007C060911E0185E0689FB001112417C0DD
:1043E000909197029923D1F060911D01961788F75B
:1043F00020911E0185E0289F90011124929FA00129
:10440000939F500D112470E0CA010E9492316038D0
:10441000710540F46115710519F406C065E070E09E
:10442000862F08958FE7089581E00895809198027E
:1044300080FF08C060911A0170E0759567957595C9
:10444000679521C081FF06C060911A0170E07595E3
:10445000679519C082FF04C060911A0170E010C016
:1044600090919602992399F0609119019617A0F7FF
:1044700080911A01899FC001112470E00E9492313D
:104480006038710540F46115710519F406C061E0EA
:1044900070E0862F08958FE7089581E00895803FAA
:1044A00021F40E94CD21819504C0813F29F40E940E
:1044B000CD2180939C020895823F21F40E94CD215A
:1044C000819504C0833F29F40E94CD2180939B02F3
:1044D0000895893F19F40E94162205C08A3F31F4DD
:1044E0000E941622819580939D0208958B3F21F4AE
:1044F0000E941622819504C08C3F29F40E94162246
:1045000080939E020895843F21F480919A028160F5
:1045100017C0853F21F480919A02826011C0863FC6
:1045200021F480919A0284600BC0873F21F480912E
:104530009A02886005C0883F31F480919A028061B8
:1045400080939A0208958D3F21F4809198028160B2
:104550000BC08E3F21F480919802826005C08F3F8E
:1045600029F4809198028460809398020895803F96
:1045700039F480919C0287FF6AC010929C0267C048
:10458000813F29F480919C021816BCF360C0909181
:104590009B02823F29F497FF5AC010929B0257C09A
:1045A000833F19F41916CCF352C090919D02893FB4
:1045B00031F419160CF04BC010929D0248C08A3F8E
:1045C00019F497FF44C0F8CF8B3F39F480919E02D5
:1045D00087FF3DC010929E023AC08C3F29F4809123
:1045E0009E021816BCF333C0843F21F480919A02D6
:1045F0008E7F17C0853F21F480919A028D7F11C074
:10460000863F21F480919A028B7F0BC0873F21F473
:1046100080919A02877F05C0883F31F480919A0289
:104620008F7E80939A0213C08D3F21F4809198026F
:104630008E7F0BC08E3F21F4809198028D7F05C044
:104640008F3F29F4809198028B7F8093980280910C
:104650009B02811106C080919C02811102C01092C0
:10466000970280919D02811106C080919E02811166
:1046700002C01092960208950E94462120919B024A
:10468000211104C020919C02222321F090939502D5
:104690008093940220919D02211104C020919E02DA
:1046A000222321F0909393028093920289E992E071
:1046B0000C945314EF92FF920F931F93CF93DF93B9
:1046C00000D000D000D0CDB7DEB786E0E9E9F2E057
:1046D000DE01119601900D928A95E1F7E0909B0220
:1046E000F0909C0200919D0210919E0210929B02FC
:1046F00010929C0210929D0210929E02E11003C043
:10470000FF2009F45DC080919402909195020E946F
:104710005221AC0190919702992339F020911F0109
:1047200030E02417350758F04BC0209120018AE073
:10473000289F900111242417350718F041C09F3F8E
:1047400019F09F5F90939702EE2061F00E94CD21B7
:104750001E1414F09FEF01C091E0989F902D11243A
:1047600090939B02FF2061F00E94CD211F1414F052
:104770009FEF01C091E0989F902D112490939C028F
:1047800030919B023323E1F020919C022223C1F05F
:1047900045EB3403C0011124992319F090939B0237
:1047A00003C081E080939B0235EB2303C0011124F9
:1047B000992319F090939C0203C081E080939C029E
:1047C000011103C0112309F45DC080919202909100
:1047D00093020E945221AC0190919602992339F0E4
:1047E00020911B0130E02417350758F04BC0209171
:1047F0001C018AE0289F900111242417350718F026
:1048000041C09F3F19F09F5F90939602002361F093
:104810000E941622101614F09FEF01C091E0989F9D
:10482000902D112490939D02112361F00E94162275
:10483000111614F09FEF01C091E0989F902D112464
:1048400090939E0230919D023323E1F020919E02CD
:104850002223C1F045EB3403C0011124992319F040
:1048600090939D0203C081E080939D0235EB23036A
:10487000C0011124992319F090939E0203C081E096
:1048800080939E0280919B0281110BC080919C02BB
:10489000811107C080919D02811103C080919E0209
:1048A00081110E943C23EB82FC820D831E8386E0F3
:1048B000FE013196A9E9B2E001900D928A95E1F7E7
:1048C00026960FB6F894DEBF0FBECDBFDF91CF9115
:1048D0001F910F91FF90EF900895E9E9F2E086E0D3
:1048E000DF011D928A95E9F71092970210929602C5
:1048F000109298020895881F8827881F089591E0D4
:10490000883F08F490E0892F0895982F907F903B7E
:10491000F1F038F49039D9F0903AC9F09038C9F4F0
:1049200016C0903D49F018F4903C31F012C0903E12
:1049300071F0903F19F00DC082E00895815F8F30D3
:1049400040F4E82FF0E0E552FE4F8081089583E0C7
:10495000089580E008950F93DC01ED91FC91099595
:104960000F9108956F927F928F929F92AF92BF9214
:10497000CF92DF92EF92FF920F93CF93DF9300D00D
:104980001F92CDB7DEB74C015B013A01E12CF12C4F
:10499000EA14FB0400F519821A821B826501CE1805
:1049A000DF0884E0C816D10418F083E0C82ED12CAB
:1049B000B3016E0D7F1DA601CE0101960E946832E3
:1049C0000B812A814981B601C4010E94AB2483E096
:1049D000E80EF11CDDCF0F900F900F90DF91CF917B
:1049E0000F91FF90EF90DF90CF90BF90AF909F908E
:1049F0008F907F906F900895FC0173836283089578
:104A0000FC01738F628F0895FC01758F648F089588
:104A1000CF93DF93EC011DA21FA21EA2BC01685D13
:104A20007F4F40EC88519F4F0E942B271B821A8298
:104A30001D821C821F821E82198618861B861A867A
:104A40001D861C861F861E86198A188A1B8A1A8A4A
:104A50001D8A1C8A1F8A1E8A198E188E1B8E1A8E1A
:104A60001D8E1C8E1F8E1E8E19A218A2DF91CF9153
:104A70000895EF92FF920F931F93CF93DF93EA0174
:104A80008A01060F111D88519F4F7C01C017D10765
:104A900029F06991C7010E943227F8CFDF91CF91A9
:104AA0001F910F91FF90EF900895FC017183608337
:104AB0000895FC0171A360A30895AF92BF92CF92B5
:104AC000DF92EF92FF920F931F93CF93DF9300D06B
:104AD0001F92CDB7DEB77C016B01142FB22EA02E32
:104AE000DC0195968C9195978430F1F45A96ED916E
:104AF000FC915B97309709F4BEC0CB01019763E04E
:104B000070E00E947E31CB01880F991F860F971F9E
:104B10004983BA820B834C2D481B9E012F5F3F4F68
:104B2000BC01C7010995B4C06230710509F452C0D7
:104B30006330710529F06130710509F099C080C0BA
:104B4000842F807F803AF9F058F48038B1F08039B2
:104B500009F091C0D7011496ED91FC9115972AC0E8
:104B6000803EB9F0803FD9F0803B09F084C0D70186
:104B70001296ED91FC9113971DC0D7011696ED91F9
:104B8000FC91179717C0D7011896ED91FC911997D2
:104B900011C0D7011A96ED91FC911B970BC0423FB3
:104BA00009F069C0D7011C96ED91FC911D973097D3
:104BB00031F461C0309709F45EC0123F21F42A2D10
:104BC0004B2D62EF04C02A2D4B2D612F6F70C70152
:104BD00009955EC0842F807F803D59F0803F79F039
:104BE000803C09F048C0D7011E96ED91FC911F97BB
:104BF00018C0D7015096ED91FC91519712C0433FD8
:104C000031F4D7015296ED91FC91539707C0413F83
:104C100091F5D7015496ED91FC915597309739F461
:104C20002AC0309741F1812F8D7F813F19F44B2DA0
:104C3000612F03C04B2D612F6F70C701099528C0EC
:104C4000842F0E947F24882331F0D7015696ED915E
:104C5000FC91579707C0163F71F4D7015896ED9114
:104C6000FC915997309739F0612FC701099510C011
:104C700064307105D8F4D7015C96ED91FC915D9795
:104C8000309731F00A2D2B2D412FB601C701099520
:104C9000D7015E96ED91FC915F97309751F00A2D08
:104CA0002B2D412FB601C701099503C0C12CD12C72
:104CB000E2CF0F900F900F90DF91CF911F910F9146
:104CC000FF90EF90DF90CF90BF90AF900895FF924C
:104CD0000F931F93CF93DF93EC01162F862F0E9423
:104CE0007F24882369F0FDA081E08DA300E020E00F
:104CF000412F61E070E0CE010E945D25FDA270C0F1
:104D0000812F0E947B244DA1882309F440C04430A8
:104D100029F01AA381E090E09FA38EA3812F0E9427
:104D20008524813031F070F0823051F0833041F0D1
:104D30002AC08DA300E020E0412F61E070E01EC09A
:104D40008DA34EC0103FB1F0173FE9F42EA13FA153
:104D5000C90163E070E00E947E31FE01E80FF91F97
:104D600012A3B9016F5F7F4F7FA36EA30CA12BA18C
:104D70004AA104C084E08DA31AA329C0CE010E94D9
:104D80005D251DA22DC01DA21FA21EA229C0442365
:104D900039F12EA13FA1C90163E070E00E947E318C
:104DA000FE01E80FF91F12A3B9016F5F7F4F7FA3C8
:104DB0006EA38130910581F0029791F40CA12BA193
:104DC0004AA1CE010E945D258DA1843049F081E089
:104DD00090E09FA38EA304C0423011F400E0EFCF17
:104DE000DF91CF911F910F91FF900895CF92DF92A5
:104DF000EF92FF920F931F93CF93DF93EC01E8A103
:104E0000F9A1309709F009956E0188EEC80ED11C02
:104E1000C6010E946227E12CF12C082F10E0E01659
:104E2000F10680F460E0C6010E947827682FCE0169
:104E30000E94672661E0C6010E9489278FEFE81A69
:104E4000F80AEDCFDF91CF911F910F91FF90EF9076
:104E5000DF90CF900895FC014283748363831182B5
:104E6000108208951F93CF93DF93EC01162F0E94B9
:104E7000A127E82F298130E0C90101966A8170E0FD
:104E80000E949231488150E08417950729F48E2FB3
:104E90000E94A42780E012C08B819C81DC01A20FBC
:104EA000B31F1C93898190E001966A8170E00E9493
:104EB000923189838E2F0E94A42781E0DF91CF91C8
:104EC0001F9108950F931F93CF938C010E94A127E8
:104ED000F801C1812081C21718F4F8019281C90F2D
:104EE000C21B0E94A4278C2FCF911F910F91089570
:104EF000FC012081862F90E0820F911D628170E07D
:104F00000E9492310380F481E02DE80FF91F808127
:104F100008951F93CF93DF93EC01162F0E94A127D2
:104F2000282F3881812F90E0830F911D6A8170E0D6
:104F30000E9492318883822FDF91CF911F910C9430
:104F4000A4278FB7F89408958FBF0895482F47700E
:104F50009C0183E0369527958A95E1F7442351F02B
:104F600057E0529FC001539F900D11240197840F69
:104F7000911D089547E0429FC001439F900D112469
:104F800008956F927F929F92AF92BF92CF92DF92DD
:104F9000EF92FF920F931F93CF93DF93EC018B015E
:104FA0007A01CA0167E070E00E947E315B01B801BE
:104FB000FE0120E030E02A153B0521F1DF011D92C2
:104FC0003D016B0180E090E0D6019D906D0101965E
:104FD000492D407850E0082E02C0559547950A9417
:104FE000E2F75081452B4083492D4F77D3014D93F4
:104FF0003D018730910541F72F5F3F4F695F7F4F3C
:105000003896D9CFC70167E070E00E947E31A901D0
:1050100063E0440F551F6A95E1F7882359F1FE01BB
:10502000E40FF51F108267E0629FD001639FB00D0F
:105030001124A00FB11F9A012F5F3F4FC20FD31F42
:1050400060E070E01D916F5F7F4F212F207830E08E
:10505000062E02C0359527950A94E2F73081232B5E
:1050600020831F7719938617970761F70196840F9E
:10507000951F01C0CA01DF91CF911F910F91FF9041
:10508000EF90DF90CF90BF90AF909F907F906F9008
:1050900008956F927F929F92AF92BF92CF92DF92CC
:1050A000EF92FF920F931F93CF93DF935A01E3E0A8
:1050B000B694A794EA95E1F74230510508F46FC021
:1050C000DB018C01E0E0F0E0EA15FB0529F16D0160
:1050D0002FEFC21AD20A7801612C712CE6012991B6
:1050E0006E012F77922EE7012883DFEF6D1A7D0A7C
:1050F0002C91062C01C0220F0A94EAF72078922AFC
:10510000E70199927E01D7E06D16710439F7319667
:105110001896095F1F4FD8CF4770D1F19F0153E018
:10512000220F331F5A95E1F757E05E9FD0015F9F32
:10513000B00D112489010F5F1F4F060F171F7C014F
:10514000EA0EFB1EC0E0D0E0C42ED12CA6014150D7
:105150005109620F731FC417D507A8F4F801819194
:105160008F018F77F70180832196FB019081292F92
:105170000C2E01C0220F0A94EAF72078282BF701A1
:1051800021937F01E8CFCD0101978C0D9D1D09C0B2
:1051900027E02E9FC0012F9F900D112402C080E0B8
:1051A00090E0DF91CF911F910F91FF90EF90DF90F2
:1051B000CF90BF90AF909F907F906F90089508958B
:1051C0000895EF92FF920F931F93CF93DF93CDB784
:1051D000DEB7A0970FB6F894DEBF0FBECDBF8B0130
:1051E00004501109F9018E2F821B841710F517FD49
:1051F0001CC08081873F91F4C8010E94A6277C01D2
:10520000A8016FE972E0CE0101960E944928BE0113
:105210006F5F7F4FC7010E943E080BC0053211052A
:1052200044F4D801A156BD4F8C9331960F5F1F4FA8
:10523000DACFA0960FB6F894DEBF0FBECDBFDF91D8
:10524000CF911F910F91FF90EF9008950F931F93AF
:10525000CF93DF93CDB7DEB727970FB6F894DEBFB5
:105260000FBECDBF8C01CE0101960E94CA2B8823B0
:1052700009F18A810E9485249A819D839B819E8366
:105280009C819F8381110EC08981843041F08730D9
:1052900031F0863031F0853031F781E003C083E0B2
:1052A00001C082E0AE014B5F5F4F682FC8010E94D2
:1052B0003925D9CF27960FB6F894DEBF0FBECDBFE4
:1052C000DF91CF911F910F910895DF92EF92FF929E
:1052D0000F931F93CF93DF9300D000D0CDB7DEB7ED
:1052E0007B01142FD22E4A832B830C83842F0E94A0
:1052F000852481111CC082E0E816F10471F083E07E
:10530000E816F10421F0EA94EF28C1F40CC0073F3D
:1053100011F487E006C084E004C087EFD812FBCF09
:1053200086E0898307C0173FB1F785E0FACF129571
:105330001F701983CE0101960E94C52B0F900F900C
:105340000F900F90DF91CF911F910F91FF90EF90F1
:10535000DF90089589E093E00E94082565E679E2F0
:1053600089E093E00E94552566E279E289E093E0C6
:105370000E9459256FED78E289E093E00E940425B0
:1053800060EE78E289E093E00E94FC2461EE78E22E
:1053900089E093E00C9400252091FA032430D9F49D
:1053A0009B01FC0181818F708093E90040E050E017
:1053B00064E070E0C9010E94892C81110FC09091B6
:1053C000E800892F807295FD08C09091E8009E77D3
:1053D0009093E800089582E0089580E00895209178
:1053E000FA032430A1F4FC0181818F708093E900DD
:1053F0002091F3008091F20090E0922B892B49F0EC
:105400008091E8008E778093E8000C94322E82E041
:10541000089580E00895FC018091FA03843059F4E6
:1054200091819F709093E9008091E80080FF03C014
:10543000CF010C94EF2908952091FA03243011F044
:1054400080E00895FC0186818F708093E90080914F
:10545000E80082FFF5CF8091E80085FFF1CFCB0116
:1054600040E050E064E070E00E94D42C8091E800BD
:1054700085FD05C08091E8008B778093E80081E08E
:1054800008958091E4020895CF93DF9300D01F9296
:10549000CDB7DEB79091FA03943019F589837B83F9
:1054A0006A8382E08093E9008FEF9091E800815059
:1054B00095FD06C095ED9A95F1F700008111F5CFA5
:1054C0008091E80085FF0DC040E050E063E070E0AF
:1054D000CE0101960E94892C8091E8008E778093FE
:1054E000E8000F900F900F90DF91CF910895BC01CD
:1054F00084E00C94442ABC0183E00C94442A22E00A
:105500002093E9002FEF3091E800215035FD06C0CF
:1055100035ED3A95F1F700002111F5CF2091E80023
:1055200025FF0BC040E050E066E070E00E94892C4F
:105530008091E8008E778093E8000895CF93DF9301
:1055400020913701222339F02091070327FF03C060
:1055500060E222E002C068E021E02093E9002FEF42
:105560003091E800215035FD06C035ED3A95F1F750
:1055700000002111F5CF2091E80025FF1DC0EC01AE
:1055800080913701811105C040E050E068E070E093
:1055900003C070E040E050E0CE010E94892C809171
:1055A000E8008E778093E80080E2FE01A4ECB2E090
:1055B00001900D928A95E1F7DF91CF910895809146
:1055C000F903811109C00E94652E0E94C22E8091AC
:1055D000E20084608093E20008951092F903089538
:1055E000089508950C940A2142E061EC81E00E9444
:1055F000DE2D42E261EC82E00E94DE2D42E361E8B2
:1056000083E00E94DE2D42E361E884E00C94DE2D0D
:105610008091FC03833009F460C030F4813071F074
:10562000823009F499C008958A3009F485C08B301E
:1056300009F46BC0893009F0A7C020C08091FB033A
:10564000813A09F0A1C08091E800877F8093E8004B
:105650008091FF0390910004892B21F460E284EC97
:1056600092E003C060E080E090E070E00E941F2DB7
:105670008091E8008B778093E80008958091FB0388
:10568000813209F081C08091FF039091000402975C
:1056900008F07AC08091E800877F8093E8008091CD
:1056A000E80082FD05C08091FA038111F8CF6CC03B
:1056B0002091F3008091F20090E0922B029729F460
:1056C0008091F1008B7F813021F48091F1008093F3
:1056D000E4028091E8008B7753C08091FB03813A0C
:1056E00009F052C08091FF0390910004892B09F0CA
:1056F0004BC08091E800877F8093E8008091E800AC
:1057000080FFFCCF8091370136C08091FB0381324E
:10571000D9F58091FF0390910004892BA9F5809120
:10572000E800877F8093E8000E94132E8091FD039C
:10573000809337010C94C8188091FB03813221F5C6
:105740008091E800877F8093E8000E94132E80916B
:10575000FE038093E50208958091FB03813AA1F452
:105760008091E800877F8093E8008091E80080FFC7
:10577000FCCF8091E5028093F1008091E8008E7764
:105780008093E8000C94132E0895BC0181E291E00F
:105790000C94CC29BC0181E291E00C941C2A0E945B
:1057A000AA2984B7877F84BF0FB6F894A895809103
:1057B0006000886180936000109260000FBE90E0EE
:1057C00080E80FB6F89480936100909361000FBE5B
:1057D0000E94A5140E94652E0E94C22E8091E200B4
:1057E00084608093E20078940E9457310E94AB1449
:1057F0008DE291E00E941B148091FA03853069F4D8
:105800000E94D6208091F8038823B1F30E94BE2025
:10581000882391F30E94732CEFCF0E94B71481E28A
:1058200091E00E940B2A0E9499140E949814E4CFE0
:105830000C941A2C292F332723303105C9F060F43A
:105840002130310581F02230310509F044C08FE963
:1058500090E020ED33E043C021323105E1F0223207
:10586000310549F138C082E190E02FE634E037C0DD
:1058700099278130910549F028F0029761F5EEE80B
:10588000F3E005C0ECECF3E002C0ECEAF3E0849155
:1058900090E09F0124C06115710541F061307105F0
:1058A000D1F489E090E02BEF33E019C089E090E07B
:1058B00022EE33E014C06115710541F061307105CD
:1058C00051F48CEB90E021E834E009C080E490E0F2
:1058D0002DE335E004C080E090E020E030E0FA0104
:1058E00031832083089580E189BD82E189BD09B4B7
:1058F00000FEFDCF8091D8008F7D8093D8008091ED
:10590000E00082608093E0008091E00081FDFCCFA8
:105910000895CF92DF92EF92FF920F931F93CF9350
:10592000DF93EC018B017A010E94322E811133C08A
:10593000E114F10439F0F70180819181081B190B02
:10594000C80FD91FC12CD12C0115110519F1809157
:10595000E80085FD16C08091E8008E778093E8000E
:10596000E114F10449F0F70180819181C80ED91E3C
:10597000D182C08285E00FC00E94322E882321F39D
:105980000AC089918093F10001501109FFEFCF1AED
:10599000DF0ADACF80E0DF91CF911F910F91FF9066
:1059A000EF90DF90CF900895CF92DF92EF92FF9229
:1059B0000F931F93CF93DF93EC018B017A010E9429
:1059C000322E811133C0E114F10439F0F7018081E6
:1059D0009181081B190BC80FD91FC12CD12C01159F
:1059E000110519F18091E80085FD16C08091E8004D
:1059F0008B778093E800E114F10449F0F70180818E
:105A00009181C80ED91ED182C08285E00FC00E944C
:105A1000322E882321F30AC08091F100899301502E
:105A20001109FFEFCF1ADF0ADACF80E0DF91CF91C3
:105A30001F910F91FF90EF90DF90CF9008952091EC
:105A40000104309102042617370748F061157105EB
:105A500039F42091E8002E772093E80001C0B901C5
:105A6000FC0120E06115710579F18091FA0388232A
:105A7000F1F18530F1F18091E80083FD3CC0809127
:105A8000E80082FD2EC08091E80080FFEBCF2091DE
:105A9000F3008091F20090E0922B6115710551F0B6
:105AA0008830910538F421912093F10061507109FB
:105AB0000196F3CF21E0089709F020E08091E800FB
:105AC0008E778093E800CECF2111CFCF0AC080918E
:105AD000FA03882361F0853061F08091E80083FD4E
